{
  "contractName": "StakingPool",
  "abi": [
    {
      "inputs": [
        {
          "internalType": "address",
          "name": "_libertas",
          "type": "address"
        }
      ],
      "stateMutability": "nonpayable",
      "type": "constructor"
    },
    {
      "anonymous": false,
      "inputs": [
        {
          "indexed": true,
          "internalType": "address",
          "name": "user",
          "type": "address"
        },
        {
          "indexed": false,
          "internalType": "uint256",
          "name": "amount",
          "type": "uint256"
        }
      ],
      "name": "Deposit",
      "type": "event"
    },
    {
      "anonymous": false,
      "inputs": [
        {
          "indexed": true,
          "internalType": "address",
          "name": "user",
          "type": "address"
        },
        {
          "indexed": false,
          "internalType": "uint256",
          "name": "amount",
          "type": "uint256"
        }
      ],
      "name": "EmergencyWithdraw",
      "type": "event"
    },
    {
      "anonymous": false,
      "inputs": [
        {
          "indexed": true,
          "internalType": "address",
          "name": "user",
          "type": "address"
        },
        {
          "indexed": false,
          "internalType": "uint256",
          "name": "amount",
          "type": "uint256"
        }
      ],
      "name": "Withdraw",
      "type": "event"
    },
    {
      "inputs": [],
      "name": "LIBERTAS",
      "outputs": [
        {
          "internalType": "address",
          "name": "",
          "type": "address"
        }
      ],
      "stateMutability": "view",
      "type": "function",
      "constant": true
    },
    {
      "inputs": [
        {
          "internalType": "address",
          "name": "",
          "type": "address"
        }
      ],
      "name": "userInfo",
      "outputs": [
        {
          "internalType": "uint256",
          "name": "amount",
          "type": "uint256"
        },
        {
          "internalType": "uint256",
          "name": "rewardDebt",
          "type": "uint256"
        }
      ],
      "stateMutability": "view",
      "type": "function",
      "constant": true
    },
    {
      "inputs": [
        {
          "internalType": "uint256",
          "name": "_amount",
          "type": "uint256"
        }
      ],
      "name": "deposit",
      "outputs": [],
      "stateMutability": "nonpayable",
      "type": "function"
    },
    {
      "inputs": [
        {
          "internalType": "uint256",
          "name": "_amount",
          "type": "uint256"
        }
      ],
      "name": "withdraw",
      "outputs": [],
      "stateMutability": "nonpayable",
      "type": "function"
    },
    {
      "inputs": [],
      "name": "claim",
      "outputs": [],
      "stateMutability": "nonpayable",
      "type": "function"
    },
    {
      "inputs": [],
      "name": "emergencyWithdraw",
      "outputs": [],
      "stateMutability": "nonpayable",
      "type": "function"
    },
    {
      "inputs": [
        {
          "internalType": "uint256",
          "name": "reward",
          "type": "uint256"
        }
      ],
      "name": "updatePool",
      "outputs": [],
      "stateMutability": "nonpayable",
      "type": "function"
    }
  ],
  "bytecode": "0x608060405234801561001057600080fd5b50604051610ff8380380610ff88339818101604052602081101561003357600080fd5b810190808051906020019092919050505060006003819055506000600281905550806000806101000a81548173ffffffffffffffffffffffffffffffffffffffff021916908373ffffffffffffffffffffffffffffffffffffffff16021790555050610f54806100a46000396000f3fe608060405234801561001057600080fd5b506004361061007d5760003560e01c806351eb05a61161005b57806351eb05a614610119578063b6b55f2514610147578063db2e21bc14610175578063e0c50dcc1461017f5761007d565b80631959a002146100825780632e1a7d4d146100e15780634e71d92d1461010f575b600080fd5b6100c46004803603602081101561009857600080fd5b81019080803573ffffffffffffffffffffffffffffffffffffffff1690602001909291905050506101b3565b604051808381526020018281526020019250505060405180910390f35b61010d600480360360208110156100f757600080fd5b81019080803590602001909291905050506101d7565b005b61011761048e565b005b6101456004803603602081101561012f57600080fd5b81019080803590602001909291905050506105bc565b005b6101736004803603602081101561015d57600080fd5b8101908080359060200190929190505050610616565b005b61017d61087f565b005b61018761093b565b604051808273ffffffffffffffffffffffffffffffffffffffff16815260200191505060405180910390f35b60016020528060005260406000206000915090508060000154908060010154905082565b6000600160003373ffffffffffffffffffffffffffffffffffffffff1673ffffffffffffffffffffffffffffffffffffffff16815260200190815260200160002090508181600001541015610294576040517f08c379a00000000000000000000000000000000000000000000000000000000081526004018080602001828103825260118152602001807f776974686472617720746f6f206d75636800000000000000000000000000000081525060200191505060405180910390fd5b60006102dc82600101546102ce64e8d4a510006102c0600254876000015461095f90919063ffffffff16565b6109e590919063ffffffff16565b610a2f90919063ffffffff16565b905060008111156102f2576102f13382610a79565b5b600083111561040357610312838360000154610a2f90919063ffffffff16565b826000018190555061032f83600354610a2f90919063ffffffff16565b60038190555060008054906101000a900473ffffffffffffffffffffffffffffffffffffffff1673ffffffffffffffffffffffffffffffffffffffff1663a9059cbb33856040518363ffffffff1660e01b8152600401808373ffffffffffffffffffffffffffffffffffffffff16815260200182815260200192505050602060405180830381600087803b1580156103c657600080fd5b505af11580156103da573d6000803e3d6000fd5b505050506040513d60208110156103f057600080fd5b8101908080519060200190929190505050505b61043364e8d4a51000610425600254856000015461095f90919063ffffffff16565b6109e590919063ffffffff16565b82600101819055503373ffffffffffffffffffffffffffffffffffffffff167f884edad9ce6fa2440d8a54cc123490eb96d2768479d49ff9c7366125a9424364846040518082815260200191505060405180910390a2505050565b6000600160003373ffffffffffffffffffffffffffffffffffffffff1673ffffffffffffffffffffffffffffffffffffffff1681526020019081526020016000206000015414156104de576105ba565b6000600160003373ffffffffffffffffffffffffffffffffffffffff1673ffffffffffffffffffffffffffffffffffffffff16815260200190815260200160002090506000610569826001015461055b64e8d4a5100061054d600254876000015461095f90919063ffffffff16565b6109e590919063ffffffff16565b610a2f90919063ffffffff16565b9050600081111561057f5761057e3382610a79565b5b6105af64e8d4a510006105a1600254856000015461095f90919063ffffffff16565b6109e590919063ffffffff16565b826001018190555050505b565b600060035414156105cc57610613565b61060c6105fb6003546105ed64e8d4a510008561095f90919063ffffffff16565b6109e590919063ffffffff16565b600254610cef90919063ffffffff16565b6002819055505b50565b6000600160003373ffffffffffffffffffffffffffffffffffffffff1673ffffffffffffffffffffffffffffffffffffffff16815260200190815260200160002090506000816000015411156106c65760006106ae82600101546106a064e8d4a51000610692600254876000015461095f90919063ffffffff16565b6109e590919063ffffffff16565b610a2f90919063ffffffff16565b905060008111156106c4576106c33382610a79565b5b505b60008211156107f55760008054906101000a900473ffffffffffffffffffffffffffffffffffffffff1673ffffffffffffffffffffffffffffffffffffffff166323b872dd3330856040518463ffffffff1660e01b8152600401808473ffffffffffffffffffffffffffffffffffffffff1681526020018373ffffffffffffffffffffffffffffffffffffffff1681526020018281526020019350505050602060405180830381600087803b15801561077e57600080fd5b505af1158015610792573d6000803e3d6000fd5b505050506040513d60208110156107a857600080fd5b8101908080519060200190929190505050506107d1828260000154610cef90919063ffffffff16565b81600001819055506107ee82600354610cef90919063ffffffff16565b6003819055505b61082564e8d4a51000610817600254846000015461095f90919063ffffffff16565b6109e590919063ffffffff16565b81600101819055503373ffffffffffffffffffffffffffffffffffffffff167fe1fffcc4923d04b559f4d29a8bfc6cda04eb5b0d3c460751c2402c5c5cc9109c836040518082815260200191505060405180910390a25050565b6000600160003373ffffffffffffffffffffffffffffffffffffffff1673ffffffffffffffffffffffffffffffffffffffff168152602001908152602001600020905060008160000154905060008260000181905550600082600101819055506108e93382610a79565b3373ffffffffffffffffffffffffffffffffffffffff167f5fafa99d0643513820be26656b45130b01e1c03062e1266bf36f88cbd3bd9695826040518082815260200191505060405180910390a25050565b60008054906101000a900473ffffffffffffffffffffffffffffffffffffffff1681565b60008083141561097257600090506109df565b600082840290508284828161098357fe5b04146109da576040517f08c379a0000000000000000000000000000000000000000000000000000000008152600401808060200182810382526021815260200180610efe6021913960400191505060405180910390fd5b809150505b92915050565b6000610a2783836040518060400160405280601a81526020017f536166654d6174683a206469766973696f6e206279207a65726f000000000000815250610d77565b905092915050565b6000610a7183836040518060400160405280601e81526020017f536166654d6174683a207375627472616374696f6e206f766572666c6f770000815250610e3d565b905092915050565b60008060009054906101000a900473ffffffffffffffffffffffffffffffffffffffff1673ffffffffffffffffffffffffffffffffffffffff166370a08231306040518263ffffffff1660e01b8152600401808273ffffffffffffffffffffffffffffffffffffffff168152602001915050602060405180830381600087803b158015610b0557600080fd5b505af1158015610b19573d6000803e3d6000fd5b505050506040513d6020811015610b2f57600080fd5b8101908080519060200190929190505050905081811015610c1c5760008054906101000a900473ffffffffffffffffffffffffffffffffffffffff1673ffffffffffffffffffffffffffffffffffffffff1663a9059cbb84836040518363ffffffff1660e01b8152600401808373ffffffffffffffffffffffffffffffffffffffff16815260200182815260200192505050602060405180830381600087803b158015610bdb57600080fd5b505af1158015610bef573d6000803e3d6000fd5b505050506040513d6020811015610c0557600080fd5b810190808051906020019092919050505050610cea565b60008054906101000a900473ffffffffffffffffffffffffffffffffffffffff1673ffffffffffffffffffffffffffffffffffffffff1663a9059cbb84846040518363ffffffff1660e01b8152600401808373ffffffffffffffffffffffffffffffffffffffff16815260200182815260200192505050602060405180830381600087803b158015610cad57600080fd5b505af1158015610cc1573d6000803e3d6000fd5b505050506040513d6020811015610cd757600080fd5b8101908080519060200190929190505050505b505050565b600080828401905083811015610d6d576040517f08c379a000000000000000000000000000000000000000000000000000000000815260040180806020018281038252601b8152602001807f536166654d6174683a206164646974696f6e206f766572666c6f77000000000081525060200191505060405180910390fd5b8091505092915050565b60008083118290610e23576040517f08c379a00000000000000000000000000000000000000000000000000000000081526004018080602001828103825283818151815260200191508051906020019080838360005b83811015610de8578082015181840152602081019050610dcd565b50505050905090810190601f168015610e155780820380516001836020036101000a031916815260200191505b509250505060405180910390fd5b506000838581610e2f57fe5b049050809150509392505050565b6000838311158290610eea576040517f08c379a00000000000000000000000000000000000000000000000000000000081526004018080602001828103825283818151815260200191508051906020019080838360005b83811015610eaf578082015181840152602081019050610e94565b50505050905090810190601f168015610edc5780820380516001836020036101000a031916815260200191505b509250505060405180910390fd5b506000838503905080915050939250505056fe536166654d6174683a206d756c7469706c69636174696f6e206f766572666c6f77a2646970667358221220aa171f62bf3168145a7963a6a2aa091a865d7d751c2f548baa61dac414f239fe64736f6c63430007000033",
  "immutableReferences": {},
  "source": "// SPDX-License-Identifier: Undefined\n\npragma solidity ^0.7.0;\n\nimport \"openzeppelin-solidity/contracts/math/SafeMath.sol\";\nimport \"./ILibertasToken.sol\";\n\ncontract StakingPool {\n    using SafeMath for uint256;\n    \n    address public LIBERTAS;\n    mapping(address => UserInfo) public userInfo;\n    uint256 accLibertasPerShare;\n    uint256 totalDeposits;\n\n    struct UserInfo {\n        uint256 amount;\n        uint256 rewardDebt;\n    }\n\n    constructor(address _libertas) {\n        totalDeposits = 0;\n        accLibertasPerShare = 0;\n        LIBERTAS = _libertas;\n    }\n\n    function deposit(uint256 _amount) public {\n        UserInfo storage user = userInfo[msg.sender];\n        if (user.amount > 0) {\n            uint256 pending = user.amount.mul(accLibertasPerShare).div(1e12).sub(user.rewardDebt);\n            if (pending > 0) {\n                safeLIBERTASTransfer(msg.sender, pending);\n            }\n        }\n        if (_amount > 0) {\n            ILibertasToken(LIBERTAS).transferFrom(msg.sender, address(this), _amount);\n            user.amount = user.amount.add(_amount);\n            totalDeposits = totalDeposits.add(_amount);\n        }\n        user.rewardDebt = user.amount.mul(accLibertasPerShare).div(1e12);\n        emit Deposit(msg.sender, _amount);\n    }\n\n    function withdraw(uint256 _amount) public {\n        UserInfo storage user = userInfo[msg.sender];\n        require(user.amount >= _amount, \"withdraw too much\");\n        uint256 pending = user.amount.mul(accLibertasPerShare).div(1e12).sub(user.rewardDebt);\n        if (pending > 0) {\n            safeLIBERTASTransfer(msg.sender, pending);\n        }\n        if (_amount > 0) {\n            user.amount = user.amount.sub(_amount);\n            totalDeposits = totalDeposits.sub(_amount);\n            ILibertasToken(LIBERTAS).transfer(msg.sender, _amount);            \n        }\n        user.rewardDebt = user.amount.mul(accLibertasPerShare).div(1e12);\n        emit Withdraw(msg.sender, _amount);\n    }\n\n    function claim() public {\n        if (userInfo[msg.sender].amount == 0) {\n            return;\n        }\n        UserInfo storage user = userInfo[msg.sender];\n        uint256 pending = user.amount.mul(accLibertasPerShare).div(1e12).sub(user.rewardDebt);\n        if (pending > 0) {\n            safeLIBERTASTransfer(msg.sender, pending);\n        }\n        user.rewardDebt = user.amount.mul(accLibertasPerShare).div(1e12);\n    }\n\n    function emergencyWithdraw() public {\n        UserInfo storage user = userInfo[msg.sender];\n        uint256 amount = user.amount;\n        user.amount = 0;\n        user.rewardDebt = 0;\n        safeLIBERTASTransfer(msg.sender, amount);\n        emit EmergencyWithdraw(msg.sender, amount);\n    }\n\n    function updatePool(uint256 reward) public {\n        if (totalDeposits == 0) {\n            return;\n        }\n        accLibertasPerShare = accLibertasPerShare.add(reward.mul(1e12).div(totalDeposits));\n    }\n\n    function safeLIBERTASTransfer(address _to, uint256 _amount) internal {\n        uint256 totalBalance = ILibertasToken(LIBERTAS).balanceOf(address(this));\n        if (totalBalance < _amount) {\n            ILibertasToken(LIBERTAS).transfer(_to, totalBalance);\n        } else {\n            ILibertasToken(LIBERTAS).transfer(_to, _amount);\n        }\n    }\n\n    event Deposit(address indexed user, uint256 amount);\n    event Withdraw(address indexed user, uint256 amount);\n    event EmergencyWithdraw(address indexed user, uint256 amount);\n}",
  "sourcePath": "/Volumes/Data/Work/Blockchain/defi/Libertas/TippingContract/contracts/StakingPool.sol",
  "compiler": {
    "name": "solc",
    "version": "0.7.0+commit.9e61f92b.Emscripten.clang"
  },
  "schemaVersion": "3.3.3",
  "updatedAt": "2021-01-14T17:29:33.954Z",
  "networkType": "ethereum",
  "devdoc": {
    "kind": "dev",
    "methods": {},
    "version": 1
  },
  "userdoc": {
    "kind": "user",
    "methods": {},
    "version": 1
  }
}