{
  "contractName": "StakingRewards",
  "abi": [
    {
      "inputs": [],
      "stateMutability": "nonpayable",
      "type": "constructor"
    },
    {
      "anonymous": false,
      "inputs": [
        {
          "indexed": true,
          "internalType": "address",
          "name": "user",
          "type": "address"
        },
        {
          "indexed": false,
          "internalType": "uint256",
          "name": "amount",
          "type": "uint256"
        }
      ],
      "name": "Deposit",
      "type": "event"
    },
    {
      "anonymous": false,
      "inputs": [
        {
          "indexed": true,
          "internalType": "address",
          "name": "user",
          "type": "address"
        },
        {
          "indexed": false,
          "internalType": "uint256",
          "name": "amount",
          "type": "uint256"
        }
      ],
      "name": "EmergencyWithdraw",
      "type": "event"
    },
    {
      "anonymous": false,
      "inputs": [
        {
          "indexed": true,
          "internalType": "address",
          "name": "user",
          "type": "address"
        },
        {
          "indexed": false,
          "internalType": "uint256",
          "name": "amount",
          "type": "uint256"
        }
      ],
      "name": "Withdraw",
      "type": "event"
    },
    {
      "inputs": [
        {
          "internalType": "address",
          "name": "",
          "type": "address"
        }
      ],
      "name": "userInfo",
      "outputs": [
        {
          "internalType": "uint256",
          "name": "amount",
          "type": "uint256"
        },
        {
          "internalType": "uint256",
          "name": "rewardDebt",
          "type": "uint256"
        }
      ],
      "stateMutability": "view",
      "type": "function"
    },
    {
      "inputs": [
        {
          "internalType": "uint256",
          "name": "_amount",
          "type": "uint256"
        }
      ],
      "name": "deposit",
      "outputs": [],
      "stateMutability": "nonpayable",
      "type": "function"
    },
    {
      "inputs": [
        {
          "internalType": "uint256",
          "name": "_amount",
          "type": "uint256"
        }
      ],
      "name": "withdraw",
      "outputs": [],
      "stateMutability": "nonpayable",
      "type": "function"
    },
    {
      "inputs": [],
      "name": "claim",
      "outputs": [],
      "stateMutability": "nonpayable",
      "type": "function"
    },
    {
      "inputs": [],
      "name": "emergencyWithdraw",
      "outputs": [],
      "stateMutability": "nonpayable",
      "type": "function"
    },
    {
      "inputs": [
        {
          "internalType": "uint256",
          "name": "reward",
          "type": "uint256"
        }
      ],
      "name": "updatePool",
      "outputs": [],
      "stateMutability": "nonpayable",
      "type": "function"
    }
  ],
  "bytecode": "0x608060405234801561001057600080fd5b5060006002819055506000600181905550610e9d806100306000396000f3fe608060405234801561001057600080fd5b50600436106100625760003560e01c80631959a002146100675780632e1a7d4d146100c65780634e71d92d146100f457806351eb05a6146100fe578063b6b55f251461012c578063db2e21bc1461015a575b600080fd5b6100a96004803603602081101561007d57600080fd5b81019080803573ffffffffffffffffffffffffffffffffffffffff169060200190929190505050610164565b604051808381526020018281526020019250505060405180910390f35b6100f2600480360360208110156100dc57600080fd5b8101908080359060200190929190505050610188565b005b6100fc610432565b005b61012a6004803603602081101561011457600080fd5b810190808035906020019092919050505061055e565b005b6101586004803603602081101561014257600080fd5b81019080803590602001909291905050506105b8565b005b610162610814565b005b60006020528060005260406000206000915090508060000154908060010154905082565b60008060003373ffffffffffffffffffffffffffffffffffffffff1673ffffffffffffffffffffffffffffffffffffffff16815260200190815260200160002090508181600001541015610244576040517f08c379a00000000000000000000000000000000000000000000000000000000081526004018080602001828103825260118152602001807f776974686472617720746f6f206d75636800000000000000000000000000000081525060200191505060405180910390fd5b600061028c826001015461027e64e8d4a5100061027060015487600001546108cf90919063ffffffff16565b61095590919063ffffffff16565b61099f90919063ffffffff16565b905060008111156102a2576102a133826109e9565b5b60008311156103a7576102c283836000015461099f90919063ffffffff16565b82600001819055506102df8360025461099f90919063ffffffff16565b6002819055507349184e6dae8c8ecd89d8bdc1b950c597b8167c9073ffffffffffffffffffffffffffffffffffffffff1663a9059cbb33856040518363ffffffff1660e01b8152600401808373ffffffffffffffffffffffffffffffffffffffff16815260200182815260200192505050602060405180830381600087803b15801561036a57600080fd5b505af115801561037e573d6000803e3d6000fd5b505050506040513d602081101561039457600080fd5b8101908080519060200190929190505050505b6103d764e8d4a510006103c960015485600001546108cf90919063ffffffff16565b61095590919063ffffffff16565b82600101819055503373ffffffffffffffffffffffffffffffffffffffff167f884edad9ce6fa2440d8a54cc123490eb96d2768479d49ff9c7366125a9424364846040518082815260200191505060405180910390a2505050565b60008060003373ffffffffffffffffffffffffffffffffffffffff1673ffffffffffffffffffffffffffffffffffffffff1681526020019081526020016000206000015414156104815761055c565b60008060003373ffffffffffffffffffffffffffffffffffffffff1673ffffffffffffffffffffffffffffffffffffffff1681526020019081526020016000209050600061050b82600101546104fd64e8d4a510006104ef60015487600001546108cf90919063ffffffff16565b61095590919063ffffffff16565b61099f90919063ffffffff16565b905060008111156105215761052033826109e9565b5b61055164e8d4a5100061054360015485600001546108cf90919063ffffffff16565b61095590919063ffffffff16565b826001018190555050505b565b6000600254141561056e576105b5565b6105ae61059d60025461058f64e8d4a51000856108cf90919063ffffffff16565b61095590919063ffffffff16565b600154610c3890919063ffffffff16565b6001819055505b50565b60008060003373ffffffffffffffffffffffffffffffffffffffff1673ffffffffffffffffffffffffffffffffffffffff168152602001908152602001600020905060008160000154111561066757600061064f826001015461064164e8d4a5100061063360015487600001546108cf90919063ffffffff16565b61095590919063ffffffff16565b61099f90919063ffffffff16565b905060008111156106655761066433826109e9565b5b505b600082111561078a577349184e6dae8c8ecd89d8bdc1b950c597b8167c9073ffffffffffffffffffffffffffffffffffffffff166323b872dd3330856040518463ffffffff1660e01b8152600401808473ffffffffffffffffffffffffffffffffffffffff1681526020018373ffffffffffffffffffffffffffffffffffffffff1681526020018281526020019350505050602060405180830381600087803b15801561071357600080fd5b505af1158015610727573d6000803e3d6000fd5b505050506040513d602081101561073d57600080fd5b810190808051906020019092919050505050610766828260000154610c3890919063ffffffff16565b816000018190555061078382600254610c3890919063ffffffff16565b6002819055505b6107ba64e8d4a510006107ac60015484600001546108cf90919063ffffffff16565b61095590919063ffffffff16565b81600101819055503373ffffffffffffffffffffffffffffffffffffffff167fe1fffcc4923d04b559f4d29a8bfc6cda04eb5b0d3c460751c2402c5c5cc9109c836040518082815260200191505060405180910390a25050565b60008060003373ffffffffffffffffffffffffffffffffffffffff1673ffffffffffffffffffffffffffffffffffffffff1681526020019081526020016000209050600081600001549050600082600001819055506000826001018190555061087d33826109e9565b3373ffffffffffffffffffffffffffffffffffffffff167f5fafa99d0643513820be26656b45130b01e1c03062e1266bf36f88cbd3bd9695826040518082815260200191505060405180910390a25050565b6000808314156108e2576000905061094f565b60008284029050828482816108f357fe5b041461094a576040517f08c379a0000000000000000000000000000000000000000000000000000000008152600401808060200182810382526021815260200180610e476021913960400191505060405180910390fd5b809150505b92915050565b600061099783836040518060400160405280601a81526020017f536166654d6174683a206469766973696f6e206279207a65726f000000000000815250610cc0565b905092915050565b60006109e183836040518060400160405280601e81526020017f536166654d6174683a207375627472616374696f6e206f766572666c6f770000815250610d86565b905092915050565b60007349184e6dae8c8ecd89d8bdc1b950c597b8167c9073ffffffffffffffffffffffffffffffffffffffff166370a08231306040518263ffffffff1660e01b8152600401808273ffffffffffffffffffffffffffffffffffffffff16815260200191505060206040518083038186803b158015610a6657600080fd5b505afa158015610a7a573d6000803e3d6000fd5b505050506040513d6020811015610a9057600080fd5b8101908080519060200190929190505050905081811015610b71577349184e6dae8c8ecd89d8bdc1b950c597b8167c9073ffffffffffffffffffffffffffffffffffffffff1663a9059cbb84836040518363ffffffff1660e01b8152600401808373ffffffffffffffffffffffffffffffffffffffff16815260200182815260200192505050602060405180830381600087803b158015610b3057600080fd5b505af1158015610b44573d6000803e3d6000fd5b505050506040513d6020811015610b5a57600080fd5b810190808051906020019092919050505050610c33565b7349184e6dae8c8ecd89d8bdc1b950c597b8167c9073ffffffffffffffffffffffffffffffffffffffff1663a9059cbb84846040518363ffffffff1660e01b8152600401808373ffffffffffffffffffffffffffffffffffffffff16815260200182815260200192505050602060405180830381600087803b158015610bf657600080fd5b505af1158015610c0a573d6000803e3d6000fd5b505050506040513d6020811015610c2057600080fd5b8101908080519060200190929190505050505b505050565b600080828401905083811015610cb6576040517f08c379a000000000000000000000000000000000000000000000000000000000815260040180806020018281038252601b8152602001807f536166654d6174683a206164646974696f6e206f766572666c6f77000000000081525060200191505060405180910390fd5b8091505092915050565b60008083118290610d6c576040517f08c379a00000000000000000000000000000000000000000000000000000000081526004018080602001828103825283818151815260200191508051906020019080838360005b83811015610d31578082015181840152602081019050610d16565b50505050905090810190601f168015610d5e5780820380516001836020036101000a031916815260200191505b509250505060405180910390fd5b506000838581610d7857fe5b049050809150509392505050565b6000838311158290610e33576040517f08c379a00000000000000000000000000000000000000000000000000000000081526004018080602001828103825283818151815260200191508051906020019080838360005b83811015610df8578082015181840152602081019050610ddd565b50505050905090810190601f168015610e255780820380516001836020036101000a031916815260200191505b509250505060405180910390fd5b506000838503905080915050939250505056fe536166654d6174683a206d756c7469706c69636174696f6e206f766572666c6f77a26469706673582212205167478159868c2764dee1f19d2918030bf72a358890b7a20e749d30de7a886864736f6c63430007000033",
  "immutableReferences": {},
  "source": "// SPDX-License-Identifier: Undefined\n\npragma solidity ^0.7.0;\n\nimport \"openzeppelin-solidity/contracts/math/SafeMath.sol\";\nimport \"openzeppelin-solidity/contracts/token/ERC20/SafeERC20.sol\";\nimport \"openzeppelin-solidity/contracts/token/ERC20/IERC20.sol\";\n\ncontract StakingRewards {\n    using SafeMath for uint256;\n    using SafeERC20 for IERC20;\n    \n    IERC20 constant LIBERTAS = IERC20(0x49184E6dAe8C8ecD89d8Bdc1B950c597b8167c90);              // Libertas Contract\n    mapping(address => UserInfo) public userInfo;\n    \n    uint256 accLibertasPerShare;\n    uint256 totalDeposits;\n\n    struct UserInfo {\n        uint256 amount;\n        uint256 rewardDebt;\n    }\n\n    constructor() {\n        totalDeposits = 0;\n        accLibertasPerShare = 0;\n    }\n\n    function deposit(uint256 _amount) public {\n        UserInfo storage user = userInfo[msg.sender];\n        if (user.amount > 0) {\n            uint256 pending = user.amount.mul(accLibertasPerShare).div(1e12).sub(user.rewardDebt);\n            if (pending > 0) {\n                safeLIBERTASTransfer(msg.sender, pending);\n            }\n        }\n        if (_amount > 0) {\n            LIBERTAS.transferFrom(msg.sender, address(this), _amount);\n            user.amount = user.amount.add(_amount);\n            totalDeposits = totalDeposits.add(_amount);\n        }\n        user.rewardDebt = user.amount.mul(accLibertasPerShare).div(1e12);\n        emit Deposit(msg.sender, _amount);\n    }\n\n    function withdraw(uint256 _amount) public {\n        UserInfo storage user = userInfo[msg.sender];\n        require(user.amount >= _amount, \"withdraw too much\");\n        uint256 pending = user.amount.mul(accLibertasPerShare).div(1e12).sub(user.rewardDebt);\n        if (pending > 0) {\n            safeLIBERTASTransfer(msg.sender, pending);\n        }\n        if (_amount > 0) {\n            user.amount = user.amount.sub(_amount);\n            totalDeposits = totalDeposits.sub(_amount);\n            LIBERTAS.transfer(msg.sender, _amount);            \n        }\n        user.rewardDebt = user.amount.mul(accLibertasPerShare).div(1e12);\n        emit Withdraw(msg.sender, _amount);\n    }\n\n    function claim() public {\n        if (userInfo[msg.sender].amount == 0) {\n            return;\n        }\n        UserInfo storage user = userInfo[msg.sender];\n        uint256 pending = user.amount.mul(accLibertasPerShare).div(1e12).sub(user.rewardDebt);\n        if (pending > 0) {\n            safeLIBERTASTransfer(msg.sender, pending);\n        }\n        user.rewardDebt = user.amount.mul(accLibertasPerShare).div(1e12);\n    }\n\n    function emergencyWithdraw() public {\n        UserInfo storage user = userInfo[msg.sender];\n        uint256 amount = user.amount;\n        user.amount = 0;\n        user.rewardDebt = 0;\n        safeLIBERTASTransfer(msg.sender, amount);\n        emit EmergencyWithdraw(msg.sender, amount);\n    }\n\n    function updatePool(uint256 reward) public {\n        if (totalDeposits == 0) {\n            return;\n        }\n        accLibertasPerShare = accLibertasPerShare.add(reward.mul(1e12).div(totalDeposits));\n    }\n\n    function safeLIBERTASTransfer(address _to, uint256 _amount) internal {\n        uint256 totalBalance = LIBERTAS.balanceOf(address(this));\n        if (totalBalance < _amount) {\n            LIBERTAS.transfer(_to, totalBalance);\n        } else {\n            LIBERTAS.transfer(_to, _amount);\n        }\n    }\n\n    event Deposit(address indexed user, uint256 amount);\n    event Withdraw(address indexed user, uint256 amount);\n    event EmergencyWithdraw(address indexed user, uint256 amount);\n}",
  "sourcePath": "/Volumes/Data/Work/Blockchain/defi/Libertas/TippingContract/contracts/StakingRewards.sol",
  "compiler": {
    "name": "solc",
    "version": "0.7.0+commit.9e61f92b.Emscripten.clang"
  },
  "schemaVersion": "3.3.3",
  "updatedAt": "2021-01-14T15:32:12.566Z",
  "devdoc": {
    "kind": "dev",
    "methods": {},
    "version": 1
  },
  "userdoc": {
    "kind": "user",
    "methods": {},
    "version": 1
  }
}