{
  "contractName": "Tipping",
  "abi": [
    {
      "inputs": [
        {
          "internalType": "address",
          "name": "_pool",
          "type": "address"
        },
        {
          "internalType": "address",
          "name": "_libertas",
          "type": "address"
        },
        {
          "internalType": "address",
          "name": "_usdt",
          "type": "address"
        },
        {
          "internalType": "address",
          "name": "_weth",
          "type": "address"
        }
      ],
      "stateMutability": "nonpayable",
      "type": "constructor"
    },
    {
      "anonymous": false,
      "inputs": [
        {
          "indexed": true,
          "internalType": "address",
          "name": "sender",
          "type": "address"
        },
        {
          "indexed": false,
          "internalType": "uint256",
          "name": "amount",
          "type": "uint256"
        }
      ],
      "name": "Burn",
      "type": "event"
    },
    {
      "anonymous": false,
      "inputs": [
        {
          "indexed": true,
          "internalType": "address",
          "name": "sender",
          "type": "address"
        },
        {
          "indexed": false,
          "internalType": "uint256",
          "name": "amount",
          "type": "uint256"
        }
      ],
      "name": "Received",
      "type": "event"
    },
    {
      "anonymous": false,
      "inputs": [
        {
          "indexed": true,
          "internalType": "address",
          "name": "sender",
          "type": "address"
        },
        {
          "indexed": true,
          "internalType": "address",
          "name": "_to",
          "type": "address"
        },
        {
          "indexed": false,
          "internalType": "uint256",
          "name": "amount",
          "type": "uint256"
        }
      ],
      "name": "Transfer",
      "type": "event"
    },
    {
      "anonymous": false,
      "inputs": [
        {
          "indexed": true,
          "internalType": "address",
          "name": "token",
          "type": "address"
        },
        {
          "indexed": false,
          "internalType": "uint256",
          "name": "ethAmount",
          "type": "uint256"
        },
        {
          "indexed": false,
          "internalType": "uint256",
          "name": "tokenAmount",
          "type": "uint256"
        }
      ],
      "name": "UniswapEthBoughtFrom",
      "type": "event"
    },
    {
      "anonymous": false,
      "inputs": [
        {
          "indexed": true,
          "internalType": "address",
          "name": "token",
          "type": "address"
        },
        {
          "indexed": false,
          "internalType": "uint256",
          "name": "ethAmount",
          "type": "uint256"
        },
        {
          "indexed": false,
          "internalType": "uint256",
          "name": "tokenAmount",
          "type": "uint256"
        }
      ],
      "name": "UniswapTokenBought",
      "type": "event"
    },
    {
      "inputs": [
        {
          "internalType": "address",
          "name": "",
          "type": "address"
        }
      ],
      "name": "deposits",
      "outputs": [
        {
          "internalType": "uint256",
          "name": "",
          "type": "uint256"
        }
      ],
      "stateMutability": "view",
      "type": "function"
    },
    {
      "stateMutability": "payable",
      "type": "receive"
    },
    {
      "inputs": [
        {
          "internalType": "address",
          "name": "_to",
          "type": "address"
        },
        {
          "internalType": "uint256",
          "name": "_amount",
          "type": "uint256"
        }
      ],
      "name": "transfer",
      "outputs": [
        {
          "internalType": "bool",
          "name": "success",
          "type": "bool"
        }
      ],
      "stateMutability": "nonpayable",
      "type": "function"
    },
    {
      "inputs": [
        {
          "internalType": "address",
          "name": "_to",
          "type": "address"
        },
        {
          "internalType": "uint256",
          "name": "_amount",
          "type": "uint256"
        }
      ],
      "name": "transferUSDT",
      "outputs": [
        {
          "internalType": "bool",
          "name": "success",
          "type": "bool"
        }
      ],
      "stateMutability": "nonpayable",
      "type": "function"
    },
    {
      "inputs": [
        {
          "internalType": "address",
          "name": "_to",
          "type": "address"
        },
        {
          "internalType": "uint256",
          "name": "_amount",
          "type": "uint256"
        }
      ],
      "name": "transferETH",
      "outputs": [
        {
          "internalType": "bool",
          "name": "success",
          "type": "bool"
        }
      ],
      "stateMutability": "nonpayable",
      "type": "function"
    }
  ],
  "bytecode": "0x608060405234801561001057600080fd5b50604051611ee9380380611ee98339818101604052608081101561003357600080fd5b8101908080519060200190929190805190602001909291908051906020019092919080519060200190929190505050836000806101000a81548173ffffffffffffffffffffffffffffffffffffffff021916908373ffffffffffffffffffffffffffffffffffffffff16021790555082600160006101000a81548173ffffffffffffffffffffffffffffffffffffffff021916908373ffffffffffffffffffffffffffffffffffffffff16021790555081600260006101000a81548173ffffffffffffffffffffffffffffffffffffffff021916908373ffffffffffffffffffffffffffffffffffffffff16021790555080600360006101000a81548173ffffffffffffffffffffffffffffffffffffffff021916908373ffffffffffffffffffffffffffffffffffffffff16021790555050505050611d71806101786000396000f3fe6080604052600436106100435760003560e01c80637b1a490914610132578063a9059cbb146101a3578063d015ed6a14610214578063fc7e286d146102855761012d565b3661012d5761009a34600460003373ffffffffffffffffffffffffffffffffffffffff1673ffffffffffffffffffffffffffffffffffffffff168152602001908152602001600020546102ea90919063ffffffff16565b600460003373ffffffffffffffffffffffffffffffffffffffff1673ffffffffffffffffffffffffffffffffffffffff168152602001908152602001600020819055503373ffffffffffffffffffffffffffffffffffffffff167f88a5966d370b9919b20f3e2c13ff65706f196a4e32cc2c12bf57088f88525874346040518082815260200191505060405180910390a2005b600080fd5b34801561013e57600080fd5b5061018b6004803603604081101561015557600080fd5b81019080803573ffffffffffffffffffffffffffffffffffffffff16906020019092919080359060200190929190505050610372565b60405180821515815260200191505060405180910390f35b3480156101af57600080fd5b506101fc600480360360408110156101c657600080fd5b81019080803573ffffffffffffffffffffffffffffffffffffffff16906020019092919080359060200190929190505050610526565b60405180821515815260200191505060405180910390f35b34801561022057600080fd5b5061026d6004803603604081101561023757600080fd5b81019080803573ffffffffffffffffffffffffffffffffffffffff1690602001909291908035906020019092919050505061078a565b60405180821515815260200191505060405180910390f35b34801561029157600080fd5b506102d4600480360360208110156102a857600080fd5b81019080803573ffffffffffffffffffffffffffffffffffffffff169060200190929190505050610987565b6040518082815260200191505060405180910390f35b600080828401905083811015610368576040517f08c379a000000000000000000000000000000000000000000000000000000000815260040180806020018281038252601b8152602001807f536166654d6174683a206164646974696f6e206f766572666c6f77000000000081525060200191505060405180910390fd5b8091505092915050565b600081600460003373ffffffffffffffffffffffffffffffffffffffff1673ffffffffffffffffffffffffffffffffffffffff1681526020019081526020016000205411610428576040517f08c379a000000000000000000000000000000000000000000000000000000000815260040180806020018281038252600e8152602001807f4e6f20657468206465706f73697400000000000000000000000000000000000081525060200191505060405180910390fd5b61047a82600460003373ffffffffffffffffffffffffffffffffffffffff1673ffffffffffffffffffffffffffffffffffffffff1681526020019081526020016000205461099f90919063ffffffff16565b600460003373ffffffffffffffffffffffffffffffffffffffff1673ffffffffffffffffffffffffffffffffffffffff16815260200190815260200160002081905550600061050e83600160009054906101000a900473ffffffffffffffffffffffffffffffffffffffff1660007fffffffffffffffffffffffffffffffffffffffffffffffffffffffffffffffff6109e9565b905061051a8482610526565b50600191505092915050565b600080600160009054906101000a900473ffffffffffffffffffffffffffffffffffffffff1673ffffffffffffffffffffffffffffffffffffffff166370a08231336040518263ffffffff1660e01b8152600401808273ffffffffffffffffffffffffffffffffffffffff16815260200191505060206040518083038186803b1580156105b257600080fd5b505afa1580156105c6573d6000803e3d6000fd5b505050506040513d60208110156105dc57600080fd5b8101908080519060200190929190505050905082811015610665576040517f08c379a00000000000000000000000000000000000000000000000000000000081526004018080602001828103825260138152602001807f496e73756666696369656e7420616d6f756e740000000000000000000000000081525060200191505060405180910390fd5b600061067484605a60006110e3565b905061068133868361112c565b61068e84600160006110e3565b905061069a3382611283565b6106a784602d60016110e3565b90506106c833730305c2119bbdc01f3f50c10f63e68920d3d619158361112c565b6106f33360008054906101000a900473ffffffffffffffffffffffffffffffffffffffff168361112c565b60008054906101000a900473ffffffffffffffffffffffffffffffffffffffff1673ffffffffffffffffffffffffffffffffffffffff166351eb05a6826040518263ffffffff1660e01b815260040180828152602001915050600060405180830381600087803b15801561076657600080fd5b505af115801561077a573d6000803e3d6000fd5b5050505060019250505092915050565b600080600260009054906101000a900473ffffffffffffffffffffffffffffffffffffffff1673ffffffffffffffffffffffffffffffffffffffff166370a08231336040518263ffffffff1660e01b8152600401808273ffffffffffffffffffffffffffffffffffffffff16815260200191505060206040518083038186803b15801561081657600080fd5b505afa15801561082a573d6000803e3d6000fd5b505050506040513d602081101561084057600080fd5b81019080805190602001909291905050509050828110156108c9576040517f08c379a00000000000000000000000000000000000000000000000000000000081526004018080602001828103825260138152602001807f496e73756666696369656e7420616d6f756e740000000000000000000000000081525060200191505060405180910390fd5b600061091a84600260009054906101000a900473ffffffffffffffffffffffffffffffffffffffff1660007fffffffffffffffffffffffffffffffffffffffffffffffffffffffffffffffff6113c3565b9050600061096d82600160009054906101000a900473ffffffffffffffffffffffffffffffffffffffff1660007fffffffffffffffffffffffffffffffffffffffffffffffffffffffffffffffff6109e9565b90506109798682610526565b506001935050505092915050565b60046020528060005260406000206000915090505481565b60006109e183836040518060400160405280601e81526020017f536166654d6174683a207375627472616374696f6e206f766572666c6f770000815250611ac4565b905092915050565b600080735c69bee701ef814a2b6a3edd4b1652cb9cc5aa6f73ffffffffffffffffffffffffffffffffffffffff1663e6a43905600360009054906101000a900473ffffffffffffffffffffffffffffffffffffffff16876040518363ffffffff1660e01b8152600401808373ffffffffffffffffffffffffffffffffffffffff1681526020018273ffffffffffffffffffffffffffffffffffffffff1681526020019250505060206040518083038186803b158015610aa757600080fd5b505afa158015610abb573d6000803e3d6000fd5b505050506040513d6020811015610ad157600080fd5b81019080805190602001909291905050509050600073ffffffffffffffffffffffffffffffffffffffff168173ffffffffffffffffffffffffffffffffffffffff161415610b87576040517f08c379a000000000000000000000000000000000000000000000000000000000815260040180806020018281038252600d8152602001807f4e6f20706169722065786973740000000000000000000000000000000000000081525060200191505060405180910390fd5b6060600267ffffffffffffffff81118015610ba157600080fd5b50604051908082528060200260200182016040528015610bd05781602001602082028036833780820191505090505b509050600360009054906101000a900473ffffffffffffffffffffffffffffffffffffffff1681600081518110610c0357fe5b602002602001019073ffffffffffffffffffffffffffffffffffffffff16908173ffffffffffffffffffffffffffffffffffffffff16815250508581600181518110610c4b57fe5b602002602001019073ffffffffffffffffffffffffffffffffffffffff16908173ffffffffffffffffffffffffffffffffffffffff16815250506060737a250d5630b4cf539739df2c5dacb4c659f2488d73ffffffffffffffffffffffffffffffffffffffff1663d06ca61f89846040518363ffffffff1660e01b81526004018083815260200180602001828103825283818151815260200191508051906020019060200280838360005b83811015610d11578082015181840152602081019050610cf6565b50505050905001935050505060006040518083038186803b158015610d3557600080fd5b505afa158015610d49573d6000803e3d6000fd5b505050506040513d6000823e3d601f19601f820116820180604052506020811015610d7357600080fd5b8101908080516040519392919084640100000000821115610d9357600080fd5b83820191506020820185811115610da957600080fd5b8251866020820283011164010000000082111715610dc657600080fd5b8083526020830192505050908051906020019060200280838360005b83811015610dfd578082015181840152602081019050610de2565b5050505090500160405250505090508581600181518110610e1a57fe5b60200260200101511015610e96576040517f08c379a00000000000000000000000000000000000000000000000000000000081526004018080602001828103825260068152602001807f457863656564000000000000000000000000000000000000000000000000000081525060200191505060405180910390fd5b737a250d5630b4cf539739df2c5dacb4c659f2488d73ffffffffffffffffffffffffffffffffffffffff16637ff36ab58983600181518110610ed457fe5b602002602001015185308a6040518663ffffffff1660e01b815260040180858152602001806020018473ffffffffffffffffffffffffffffffffffffffff168152602001838152602001828103825285818151815260200191508051906020019060200280838360005b83811015610f59578082015181840152602081019050610f3e565b50505050905001955050505050506000604051808303818588803b158015610f8057600080fd5b505af1158015610f94573d6000803e3d6000fd5b50505050506040513d6000823e3d601f19601f820116820180604052506020811015610fbf57600080fd5b8101908080516040519392919084640100000000821115610fdf57600080fd5b83820191506020820185811115610ff557600080fd5b825186602082028301116401000000008211171561101257600080fd5b8083526020830192505050908051906020019060200280838360005b8381101561104957808201518184015260208101905061102e565b50505050905001604052505050508673ffffffffffffffffffffffffffffffffffffffff167fa9685fc6eb6f39b9c0a6a39db58b58904ccb91e53b19a97b02e85088b681e3f8898360018151811061109d57fe5b6020026020010151604051808381526020018281526020019250505060405180910390a2806001815181106110ce57fe5b60200260200101519350505050949350505050565b60008061110160018401600a0a850286611b8490919063ffffffff16565b905061111f60018401600a0a60640282611c0a90919063ffffffff16565b9050809150509392505050565b600160009054906101000a900473ffffffffffffffffffffffffffffffffffffffff1673ffffffffffffffffffffffffffffffffffffffff166323b872dd8484846040518463ffffffff1660e01b8152600401808473ffffffffffffffffffffffffffffffffffffffff1681526020018373ffffffffffffffffffffffffffffffffffffffff1681526020018281526020019350505050602060405180830381600087803b1580156111dd57600080fd5b505af11580156111f1573d6000803e3d6000fd5b505050506040513d602081101561120757600080fd5b8101908080519060200190929190505050508173ffffffffffffffffffffffffffffffffffffffff168373ffffffffffffffffffffffffffffffffffffffff167fddf252ad1be2c89b69c2b068fc378daa952ba7f163c4a11628f55a4df523b3ef836040518082815260200191505060405180910390a3505050565b600160009054906101000a900473ffffffffffffffffffffffffffffffffffffffff1673ffffffffffffffffffffffffffffffffffffffff166323b872dd836000846040518463ffffffff1660e01b8152600401808473ffffffffffffffffffffffffffffffffffffffff1681526020018373ffffffffffffffffffffffffffffffffffffffff1681526020018281526020019350505050602060405180830381600087803b15801561133557600080fd5b505af1158015611349573d6000803e3d6000fd5b505050506040513d602081101561135f57600080fd5b8101908080519060200190929190505050508173ffffffffffffffffffffffffffffffffffffffff167fcc16f5dbb4873280815c1ee09dbd06736cffcc184412cf7a71a0fdb75d397ca5826040518082815260200191505060405180910390a25050565b600080735c69bee701ef814a2b6a3edd4b1652cb9cc5aa6f73ffffffffffffffffffffffffffffffffffffffff1663e6a43905600360009054906101000a900473ffffffffffffffffffffffffffffffffffffffff16876040518363ffffffff1660e01b8152600401808373ffffffffffffffffffffffffffffffffffffffff1681526020018273ffffffffffffffffffffffffffffffffffffffff1681526020019250505060206040518083038186803b15801561148157600080fd5b505afa158015611495573d6000803e3d6000fd5b505050506040513d60208110156114ab57600080fd5b81019080805190602001909291905050509050600073ffffffffffffffffffffffffffffffffffffffff168173ffffffffffffffffffffffffffffffffffffffff161415611561576040517f08c379a000000000000000000000000000000000000000000000000000000000815260040180806020018281038252600d8152602001807f4e6f20706169722065786973740000000000000000000000000000000000000081525060200191505060405180910390fd5b6060600267ffffffffffffffff8111801561157b57600080fd5b506040519080825280602002602001820160405280156115aa5781602001602082028036833780820191505090505b50905085816000815181106115bb57fe5b602002602001019073ffffffffffffffffffffffffffffffffffffffff16908173ffffffffffffffffffffffffffffffffffffffff1681525050600360009054906101000a900473ffffffffffffffffffffffffffffffffffffffff168160018151811061162557fe5b602002602001019073ffffffffffffffffffffffffffffffffffffffff16908173ffffffffffffffffffffffffffffffffffffffff16815250506060737a250d5630b4cf539739df2c5dacb4c659f2488d73ffffffffffffffffffffffffffffffffffffffff1663d06ca61f89846040518363ffffffff1660e01b81526004018083815260200180602001828103825283818151815260200191508051906020019060200280838360005b838110156116eb5780820151818401526020810190506116d0565b50505050905001935050505060006040518083038186803b15801561170f57600080fd5b505afa158015611723573d6000803e3d6000fd5b505050506040513d6000823e3d601f19601f82011682018060405250602081101561174d57600080fd5b810190808051604051939291908464010000000082111561176d57600080fd5b8382019150602082018581111561178357600080fd5b82518660208202830111640100000000821117156117a057600080fd5b8083526020830192505050908051906020019060200280838360005b838110156117d75780820151818401526020810190506117bc565b50505050905001604052505050905085816001815181106117f457fe5b60200260200101511015611870576040517f08c379a00000000000000000000000000000000000000000000000000000000081526004018080602001828103825260068152602001807f457863656564000000000000000000000000000000000000000000000000000081525060200191505060405180910390fd5b737a250d5630b4cf539739df2c5dacb4c659f2488d73ffffffffffffffffffffffffffffffffffffffff166318cbafe589836001815181106118ae57fe5b602002602001015185308a6040518663ffffffff1660e01b815260040180868152602001858152602001806020018473ffffffffffffffffffffffffffffffffffffffff168152602001838152602001828103825285818151815260200191508051906020019060200280838360005b8381101561193957808201518184015260208101905061191e565b505050509050019650505050505050600060405180830381600087803b15801561196257600080fd5b505af1158015611976573d6000803e3d6000fd5b505050506040513d6000823e3d601f19601f8201168201806040525060208110156119a057600080fd5b81019080805160405193929190846401000000008211156119c057600080fd5b838201915060208201858111156119d657600080fd5b82518660208202830111640100000000821117156119f357600080fd5b8083526020830192505050908051906020019060200280838360005b83811015611a2a578082015181840152602081019050611a0f565b50505050905001604052505050508673ffffffffffffffffffffffffffffffffffffffff167fe899a6f095e43e10370c94eb5ad98c91f566f6f740c0107adc55aee7a1ace9f582600181518110611a7d57fe5b60200260200101518a604051808381526020018281526020019250505060405180910390a280600181518110611aaf57fe5b60200260200101519350505050949350505050565b6000838311158290611b71576040517f08c379a00000000000000000000000000000000000000000000000000000000081526004018080602001828103825283818151815260200191508051906020019080838360005b83811015611b36578082015181840152602081019050611b1b565b50505050905090810190601f168015611b635780820380516001836020036101000a031916815260200191505b509250505060405180910390fd5b5060008385039050809150509392505050565b600080831415611b975760009050611c04565b6000828402905082848281611ba857fe5b0414611bff576040517f08c379a0000000000000000000000000000000000000000000000000000000008152600401808060200182810382526021815260200180611d1b6021913960400191505060405180910390fd5b809150505b92915050565b6000611c4c83836040518060400160405280601a81526020017f536166654d6174683a206469766973696f6e206279207a65726f000000000000815250611c54565b905092915050565b60008083118290611d00576040517f08c379a00000000000000000000000000000000000000000000000000000000081526004018080602001828103825283818151815260200191508051906020019080838360005b83811015611cc5578082015181840152602081019050611caa565b50505050905090810190601f168015611cf25780820380516001836020036101000a031916815260200191505b509250505060405180910390fd5b506000838581611d0c57fe5b04905080915050939250505056fe536166654d6174683a206d756c7469706c69636174696f6e206f766572666c6f77a2646970667358221220b1e7fd212d7b89f015dd680d9d42c756d0a3286cbc4577dbad65121878ceacdf64736f6c63430007000033",
  "immutableReferences": {},
  "source": "// SPDX-License-Identifier: Undefined\n\npragma solidity ^0.7.0;\n\nimport \"openzeppelin-solidity/contracts/token/ERC20/IERC20.sol\";\nimport \"openzeppelin-solidity/contracts/math/SafeMath.sol\";\nimport \"./interfaces/IUniswapV2Factory.sol\";\nimport \"./interfaces/IUniswapV2Router02.sol\";\nimport \"./IStakingPool.sol\";\nimport \"./ILibertasToken.sol\";\n\ncontract Tipping {\n    using SafeMath for uint256;\n\n    address POOL;               // Staking pool address\n    address LIBERTAS;           // Libertas Contract\n    address USDT;               // Tether Contract\n    address WETH;               // WETH Contract\n    address constant VAULT = 0x0305c2119bBDC01F3F50c10f63e68920D3d61915;            // Dev fund address\n    IUniswapV2Factory constant UNI_V2_FACTORY = IUniswapV2Factory(address(0x5C69bEe701ef814a2B6a3EDD4B1652CB9cc5aA6f));\n    IUniswapV2Router02 constant UNI_V2_ROUTER02 = IUniswapV2Router02(address(0x7a250d5630B4cF539739dF2C5dAcb4c659F2488D));\n\n    mapping (address => uint256) public deposits;\n\n    constructor(\n        address _pool,\n        address _libertas,\n        address _usdt,\n        address _weth\n    ) {\n        POOL = _pool;\n        LIBERTAS = _libertas;\n        USDT = _usdt;\n        WETH = _weth;\n    }\n\n    function transfer(address _to, uint256 _amount) public returns (bool success) {\n        uint256 availableAmount = IERC20(LIBERTAS).balanceOf(msg.sender);\n        require(availableAmount >= _amount, \"Insufficient amount\");\n        \n        uint256 sendAmount = 0;\n        sendAmount = _calculatePartialAmount(_amount, 90, 0);                               // Send 90% to destination\n        _transfer(msg.sender, _to, sendAmount);\n        sendAmount = _calculatePartialAmount(_amount, 1, 0);                                // Burn 1%\n        _burn(msg.sender, sendAmount);\n        sendAmount = _calculatePartialAmount(_amount, 45, 1);                               // Send 4.5% to vault and pool\n        _transfer(msg.sender, VAULT, sendAmount);\n        _transfer(msg.sender, POOL, sendAmount);\n        IStakingPool(POOL).updatePool(sendAmount);\n        return true;\n    }\n\n    function transferUSDT(address _to, uint256 _amount) public returns (bool success) {\n        uint256 availableAmount = IERC20(USDT).balanceOf(msg.sender);\n        require(availableAmount >= _amount, \"Insufficient amount\");\n        \n        uint256 wethAmount = tokenToEth(_amount, USDT, 0, 2**256-1);\n        uint256 libertasAmount = ethToToken(wethAmount, LIBERTAS, 0, 2**256-1);\n        transfer(_to, libertasAmount);\n        return true;\n    }\n\n    function transferETH(address _to, uint256 _amount) public returns (bool success) {\n        require(deposits[msg.sender] > _amount, \"No eth deposit\");\n        \n        deposits[msg.sender] = deposits[msg.sender].sub(_amount);\n        uint256 libertasAmount = ethToToken(_amount, LIBERTAS, 0, 2**256-1);\n        transfer(_to, libertasAmount);\n        return true;\n    }\n\n    receive() external payable {\n        deposits[msg.sender] = deposits[msg.sender].add(msg.value);\n        emit Received(msg.sender, msg.value);\n    }\n\n    function ethToToken(uint ethAmount, address token, uint minAmount, uint deadline) internal returns (uint) {\n        address pair = UNI_V2_FACTORY.getPair(WETH, token);\n        require (pair != address(0), \"No pair exist\");\n        address[] memory path = new address[](2);\n        path[0] = address(WETH);\n        path[1] = address(token);\n        uint256[] memory minOuts = UNI_V2_ROUTER02.getAmountsOut(ethAmount, path);\n        require (minOuts[1] >= minAmount, \"Exceed\");\n        UNI_V2_ROUTER02.swapExactETHForTokens{value: ethAmount}(minOuts[1], path, address(this), deadline);\n\n        emit UniswapTokenBought(token, ethAmount, minOuts[1]);\n        return minOuts[1];\n    }\n\n    function tokenToEth(uint tokenAmount, address token, uint minEthAmount, uint deadline) internal returns (uint) {\n        address pair = UNI_V2_FACTORY.getPair(WETH, token);\n        require (pair != address(0), \"No pair exist\");\n        address[] memory path = new address[](2);\n        path[0] = address(token);\n        path[1] = address(WETH);\n        uint256[] memory minOuts = UNI_V2_ROUTER02.getAmountsOut(tokenAmount, path);\n        require (minOuts[1] >= minEthAmount, \"Exceed\");\n\n        UNI_V2_ROUTER02.swapExactTokensForETH(tokenAmount, minOuts[1], path, address(this), deadline);\n\n        emit UniswapEthBoughtFrom(token, minOuts[1], tokenAmount);\n        return minOuts[1];\n    }\n\n    function _calculatePartialAmount(uint256 _amount, uint256 _ratio, uint256 _precision) internal pure returns(uint256) {\n        uint256 partialAmount = _amount.mul(_ratio*(10**(_precision+1)));\n        partialAmount = partialAmount.div(100*(10**(_precision+1)));\n        return partialAmount;\n    }\n\n    function _transfer(address _from, address _to, uint256 _amount) internal {\n        ILibertasToken(LIBERTAS).transferFrom(_from, _to, _amount);\n        emit Transfer(_from, _to, _amount);\n    }\n\n    function _burn(address _from, uint256 _amount) internal {\n        ILibertasToken(LIBERTAS).transferFrom(_from, address(0), _amount);\n        emit Burn(_from, _amount);\n    }\n\n    event Burn(address indexed sender, uint256 amount);\n    event Transfer(address indexed sender, address indexed _to, uint256 amount);\n    event Received(address indexed sender, uint amount);\n    event UniswapTokenBought(address indexed token, uint ethAmount, uint tokenAmount);\n    event UniswapEthBoughtFrom(address indexed token, uint ethAmount, uint tokenAmount);\n}",
  "sourcePath": "/Volumes/Data/Work/Blockchain/defi/Libertas/TippingContract/contracts/Tipping.sol",
  "compiler": {
    "name": "solc",
    "version": "0.7.0+commit.9e61f92b.Emscripten.clang"
  },
  "schemaVersion": "3.3.3",
  "updatedAt": "2021-01-14T17:29:33.970Z",
  "networkType": "ethereum",
  "devdoc": {
    "kind": "dev",
    "methods": {},
    "version": 1
  },
  "userdoc": {
    "kind": "user",
    "methods": {},
    "version": 1
  }
}